:1000000011767438119874061198740C1198740153
:10001000119874821198745611A7744F11A7742007
:1000200011A7744111A7744E11A7744811A7742029
:1000300011A7744B11A7744811A7744111A774C379
:100040001198745411A7744511A7744311A77448EB
:1000500011A7744E11A7744F11A7744C11A7744FB8
:1000600011A7744711A7745911A7759000118275D3
:1000700090FF118280F49000207403F0900040748F
:1000800005F07B087A0879ECD9FEDAFCDBFA2279F4
:10009000FA0000D9FCDAF82211B69000A0F0C2B341
:1000A000C2B0D2B1C2B12211B69000A0F0C2B3D298
:0900B000B0D2B1C2B122118F22BD
:00000001FF
